{
  "abi": [
    {
      "inputs": [
        {
          "internalType": "address",
          "name": "staking",
          "type": "address"
        },
        {
          "internalType": "address",
          "name": "disputeManager",
          "type": "address"
        }
      ],
      "stateMutability": "nonpayable",
      "type": "constructor"
    },
    {
      "anonymous": false,
      "inputs": [
        {
          "indexed": false,
          "internalType": "bytes32",
          "name": "subgraphBridgeID",
          "type": "bytes32"
        },
        {
          "indexed": false,
          "internalType": "bytes32",
          "name": "requestCID",
          "type": "bytes32"
        },
        {
          "indexed": false,
          "internalType": "string",
          "name": "response",
          "type": "string"
        }
      ],
      "name": "QueryResultFinalized",
      "type": "event"
    },
    {
      "anonymous": false,
      "inputs": [
        {
          "indexed": false,
          "internalType": "address",
          "name": "bridgeCreator",
          "type": "address"
        },
        {
          "indexed": false,
          "internalType": "bytes32",
          "name": "subgraphBridgeId",
          "type": "bytes32"
        },
        {
          "indexed": false,
          "internalType": "bytes32",
          "name": "subgraphDeploymentID",
          "type": "bytes32"
        },
        {
          "indexed": false,
          "internalType": "bytes",
          "name": "queryFirstChunk",
          "type": "bytes"
        },
        {
          "indexed": false,
          "internalType": "bytes",
          "name": "queryLastChunk",
          "type": "bytes"
        },
        {
          "indexed": false,
          "internalType": "uint256",
          "name": "responseDataType",
          "type": "uint256"
        },
        {
          "indexed": false,
          "internalType": "uint208",
          "name": "proposalFreezePeriod",
          "type": "uint208"
        },
        {
          "indexed": false,
          "internalType": "uint16",
          "name": "responseDataOffset",
          "type": "uint16"
        },
        {
          "indexed": false,
          "internalType": "uint256",
          "name": "minimumSlashableGRT",
          "type": "uint256"
        }
      ],
      "name": "SubgraphBridgeCreation",
      "type": "event"
    },
    {
      "anonymous": false,
      "inputs": [
        {
          "indexed": true,
          "internalType": "bytes32",
          "name": "subgraphBridgeID",
          "type": "bytes32"
        },
        {
          "indexed": true,
          "internalType": "bytes32",
          "name": "requestCID",
          "type": "bytes32"
        },
        {
          "indexed": false,
          "internalType": "bytes32",
          "name": "disputeID",
          "type": "bytes32"
        }
      ],
      "name": "SubgraphQueryDisputeCreated",
      "type": "event"
    },
    {
      "anonymous": false,
      "inputs": [
        {
          "indexed": false,
          "internalType": "address",
          "name": "queryBridger",
          "type": "address"
        },
        {
          "indexed": false,
          "internalType": "bytes32",
          "name": "subgraphBridgeID",
          "type": "bytes32"
        },
        {
          "indexed": false,
          "internalType": "bytes32",
          "name": "subgraphDeploymentID",
          "type": "bytes32"
        },
        {
          "indexed": false,
          "internalType": "string",
          "name": "response",
          "type": "string"
        },
        {
          "indexed": false,
          "internalType": "bytes",
          "name": "attestationData",
          "type": "bytes"
        },
        {
          "indexed": false,
          "internalType": "uint256",
          "name": "unlocksAt",
          "type": "uint256"
        },
        {
          "indexed": false,
          "internalType": "bytes32",
          "name": "requestCID",
          "type": "bytes32"
        }
      ],
      "name": "SubgraphResponseAdded",
      "type": "event"
    },
    {
      "inputs": [
        {
          "internalType": "string",
          "name": "_a",
          "type": "string"
        },
        {
          "internalType": "uint256",
          "name": "_offset",
          "type": "uint256"
        }
      ],
      "name": "_addressFromString",
      "outputs": [
        {
          "internalType": "address",
          "name": "",
          "type": "address"
        }
      ],
      "stateMutability": "pure",
      "type": "function"
    },
    {
      "inputs": [
        {
          "internalType": "string",
          "name": "s",
          "type": "string"
        }
      ],
      "name": "_bytes32FromHex",
      "outputs": [
        {
          "internalType": "bytes32",
          "name": "result",
          "type": "bytes32"
        }
      ],
      "stateMutability": "pure",
      "type": "function"
    },
    {
      "inputs": [
        {
          "internalType": "string",
          "name": "fullString",
          "type": "string"
        },
        {
          "internalType": "uint16",
          "name": "dataOffset",
          "type": "uint16"
        }
      ],
      "name": "_bytes32FromString",
      "outputs": [
        {
          "internalType": "bytes32",
          "name": "",
          "type": "bytes32"
        }
      ],
      "stateMutability": "pure",
      "type": "function"
    },
    {
      "inputs": [
        {
          "internalType": "uint8",
          "name": "c",
          "type": "uint8"
        }
      ],
      "name": "_fromHexChar",
      "outputs": [
        {
          "internalType": "uint8",
          "name": "_rawByte",
          "type": "uint8"
        }
      ],
      "stateMutability": "pure",
      "type": "function"
    },
    {
      "inputs": [
        {
          "internalType": "bytes32",
          "name": "_blockhash",
          "type": "bytes32"
        },
        {
          "internalType": "bytes32",
          "name": "_subgraphBridgeId",
          "type": "bytes32"
        }
      ],
      "name": "_generateQueryRequestCID",
      "outputs": [
        {
          "internalType": "bytes32",
          "name": "",
          "type": "bytes32"
        }
      ],
      "stateMutability": "view",
      "type": "function"
    },
    {
      "inputs": [
        {
          "components": [
            {
              "internalType": "bytes",
              "name": "queryFirstChunk",
              "type": "bytes"
            },
            {
              "internalType": "bytes",
              "name": "queryLastChunk",
              "type": "bytes"
            },
            {
              "internalType": "enum SubgraphBridgeManagerHelpers.BridgeDataType",
              "name": "responseDataType",
              "type": "uint8"
            },
            {
              "internalType": "bytes32",
              "name": "subgraphDeploymentID",
              "type": "bytes32"
            },
            {
              "internalType": "uint208",
              "name": "proposalFreezePeriod",
              "type": "uint208"
            },
            {
              "internalType": "uint16",
              "name": "responseDataOffset",
              "type": "uint16"
            },
            {
              "internalType": "uint256",
              "name": "minimumSlashableGRT",
              "type": "uint256"
            }
          ],
          "internalType": "struct SubgraphBridgeManagerHelpers.SubgraphBridge",
          "name": "subgraphBridge",
          "type": "tuple"
        }
      ],
      "name": "_subgraphBridgeID",
      "outputs": [
        {
          "internalType": "bytes32",
          "name": "",
          "type": "bytes32"
        }
      ],
      "stateMutability": "pure",
      "type": "function"
    },
    {
      "inputs": [
        {
          "internalType": "bytes",
          "name": "bString",
          "type": "bytes"
        },
        {
          "internalType": "uint256",
          "name": "offset",
          "type": "uint256"
        }
      ],
      "name": "_uintFromByteString",
      "outputs": [
        {
          "internalType": "uint256",
          "name": "value",
          "type": "uint256"
        },
        {
          "internalType": "uint256",
          "name": "depth",
          "type": "uint256"
        }
      ],
      "stateMutability": "view",
      "type": "function"
    },
    {
      "inputs": [
        {
          "internalType": "string",
          "name": "str",
          "type": "string"
        },
        {
          "internalType": "uint256",
          "name": "offset",
          "type": "uint256"
        }
      ],
      "name": "_uintFromString",
      "outputs": [
        {
          "internalType": "uint256",
          "name": "",
          "type": "uint256"
        }
      ],
      "stateMutability": "view",
      "type": "function"
    },
    {
      "inputs": [
        {
          "internalType": "bytes32",
          "name": "subgraphBridgeID",
          "type": "bytes32"
        },
        {
          "internalType": "string",
          "name": "response",
          "type": "string"
        },
        {
          "internalType": "bytes",
          "name": "attestationData",
          "type": "bytes"
        }
      ],
      "name": "certifySubgraphResponse",
      "outputs": [],
      "stateMutability": "nonpayable",
      "type": "function"
    },
    {
      "inputs": [
        {
          "components": [
            {
              "internalType": "bytes",
              "name": "queryFirstChunk",
              "type": "bytes"
            },
            {
              "internalType": "bytes",
              "name": "queryLastChunk",
              "type": "bytes"
            },
            {
              "internalType": "enum SubgraphBridgeManagerHelpers.BridgeDataType",
              "name": "responseDataType",
              "type": "uint8"
            },
            {
              "internalType": "bytes32",
              "name": "subgraphDeploymentID",
              "type": "bytes32"
            },
            {
              "internalType": "uint208",
              "name": "proposalFreezePeriod",
              "type": "uint208"
            },
            {
              "internalType": "uint16",
              "name": "responseDataOffset",
              "type": "uint16"
            },
            {
              "internalType": "uint256",
              "name": "minimumSlashableGRT",
              "type": "uint256"
            }
          ],
          "internalType": "struct SubgraphBridgeManagerHelpers.SubgraphBridge",
          "name": "subgraphBridge",
          "type": "tuple"
        }
      ],
      "name": "createSubgraphBridge",
      "outputs": [],
      "stateMutability": "nonpayable",
      "type": "function"
    },
    {
      "inputs": [
        {
          "internalType": "bytes32",
          "name": "requestCID",
          "type": "bytes32"
        }
      ],
      "name": "isQueryDisputed",
      "outputs": [
        {
          "internalType": "bool",
          "name": "",
          "type": "bool"
        }
      ],
      "stateMutability": "view",
      "type": "function"
    },
    {
      "inputs": [
        {
          "internalType": "bytes32",
          "name": "",
          "type": "bytes32"
        }
      ],
      "name": "latestSubgraphBridgeData",
      "outputs": [
        {
          "internalType": "bytes",
          "name": "",
          "type": "bytes"
        }
      ],
      "stateMutability": "view",
      "type": "function"
    },
    {
      "inputs": [
        {
          "internalType": "bytes",
          "name": "_data",
          "type": "bytes"
        }
      ],
      "name": "parseAttestation",
      "outputs": [
        {
          "components": [
            {
              "internalType": "bytes32",
              "name": "requestCID",
              "type": "bytes32"
            },
            {
              "internalType": "bytes32",
              "name": "responseCID",
              "type": "bytes32"
            },
            {
              "internalType": "bytes32",
              "name": "subgraphDeploymentID",
              "type": "bytes32"
            },
            {
              "internalType": "bytes32",
              "name": "r",
              "type": "bytes32"
            },
            {
              "internalType": "bytes32",
              "name": "s",
              "type": "bytes32"
            },
            {
              "internalType": "uint8",
              "name": "v",
              "type": "uint8"
            }
          ],
          "internalType": "struct IDisputeManager.Attestation",
          "name": "",
          "type": "tuple"
        }
      ],
      "stateMutability": "pure",
      "type": "function"
    },
    {
      "inputs": [
        {
          "internalType": "uint256",
          "name": "blockNumber",
          "type": "uint256"
        }
      ],
      "name": "pinBlockHash",
      "outputs": [],
      "stateMutability": "nonpayable",
      "type": "function"
    },
    {
      "inputs": [
        {
          "internalType": "uint256",
          "name": "",
          "type": "uint256"
        }
      ],
      "name": "pinnedBlocks",
      "outputs": [
        {
          "internalType": "bytes32",
          "name": "",
          "type": "bytes32"
        }
      ],
      "stateMutability": "view",
      "type": "function"
    },
    {
      "inputs": [
        {
          "internalType": "uint256",
          "name": "blockNumber",
          "type": "uint256"
        },
        {
          "internalType": "bytes32",
          "name": "subgraphBridgeID",
          "type": "bytes32"
        },
        {
          "internalType": "string",
          "name": "response",
          "type": "string"
        },
        {
          "internalType": "bytes",
          "name": "attestationData",
          "type": "bytes"
        }
      ],
      "name": "postSubgraphResponse",
      "outputs": [],
      "stateMutability": "nonpayable",
      "type": "function"
    },
    {
      "inputs": [
        {
          "internalType": "bytes32",
          "name": "blockHash",
          "type": "bytes32"
        },
        {
          "internalType": "bytes32",
          "name": "subgraphBridgeID",
          "type": "bytes32"
        },
        {
          "internalType": "string",
          "name": "response",
          "type": "string"
        },
        {
          "components": [
            {
              "internalType": "bytes32",
              "name": "requestCID",
              "type": "bytes32"
            },
            {
              "internalType": "bytes32",
              "name": "responseCID",
              "type": "bytes32"
            },
            {
              "internalType": "bytes32",
              "name": "subgraphDeploymentID",
              "type": "bytes32"
            },
            {
              "internalType": "bytes32",
              "name": "r",
              "type": "bytes32"
            },
            {
              "internalType": "bytes32",
              "name": "s",
              "type": "bytes32"
            },
            {
              "internalType": "uint8",
              "name": "v",
              "type": "uint8"
            }
          ],
          "internalType": "struct IDisputeManager.Attestation",
          "name": "attestation",
          "type": "tuple"
        }
      ],
      "name": "queryAndResponseMatchAttestation",
      "outputs": [
        {
          "internalType": "bool",
          "name": "",
          "type": "bool"
        }
      ],
      "stateMutability": "view",
      "type": "function"
    },
    {
      "inputs": [
        {
          "internalType": "bytes32",
          "name": "",
          "type": "bytes32"
        },
        {
          "internalType": "uint256",
          "name": "",
          "type": "uint256"
        }
      ],
      "name": "queryDisputes",
      "outputs": [
        {
          "internalType": "bytes32",
          "name": "",
          "type": "bytes32"
        }
      ],
      "stateMutability": "view",
      "type": "function"
    },
    {
      "inputs": [
        {
          "internalType": "bytes32",
          "name": "",
          "type": "bytes32"
        },
        {
          "internalType": "bytes32",
          "name": "",
          "type": "bytes32"
        }
      ],
      "name": "subgraphBridgeData",
      "outputs": [
        {
          "internalType": "bytes",
          "name": "",
          "type": "bytes"
        }
      ],
      "stateMutability": "view",
      "type": "function"
    },
    {
      "inputs": [
        {
          "internalType": "bytes32",
          "name": "",
          "type": "bytes32"
        },
        {
          "internalType": "bytes32",
          "name": "",
          "type": "bytes32"
        }
      ],
      "name": "subgraphBridgeProposals",
      "outputs": [
        {
          "components": [
            {
              "internalType": "uint256",
              "name": "attestationStake",
              "type": "uint256"
            },
            {
              "internalType": "uint256",
              "name": "tokenStake",
              "type": "uint256"
            }
          ],
          "internalType": "struct SubgraphBridgeManagerHelpers.BridgeStakeTokens",
          "name": "totalStake",
          "type": "tuple"
        },
        {
          "internalType": "uint256",
          "name": "proposalCount",
          "type": "uint256"
        }
      ],
      "stateMutability": "view",
      "type": "function"
    },
    {
      "inputs": [
        {
          "internalType": "bytes32",
          "name": "",
          "type": "bytes32"
        }
      ],
      "name": "subgraphBridges",
      "outputs": [
        {
          "internalType": "bytes",
          "name": "queryFirstChunk",
          "type": "bytes"
        },
        {
          "internalType": "bytes",
          "name": "queryLastChunk",
          "type": "bytes"
        },
        {
          "internalType": "enum SubgraphBridgeManagerHelpers.BridgeDataType",
          "name": "responseDataType",
          "type": "uint8"
        },
        {
          "internalType": "bytes32",
          "name": "subgraphDeploymentID",
          "type": "bytes32"
        },
        {
          "internalType": "uint208",
          "name": "proposalFreezePeriod",
          "type": "uint208"
        },
        {
          "internalType": "uint16",
          "name": "responseDataOffset",
          "type": "uint16"
        },
        {
          "internalType": "uint256",
          "name": "minimumSlashableGRT",
          "type": "uint256"
        }
      ],
      "stateMutability": "view",
      "type": "function"
    },
    {
      "inputs": [],
      "name": "theGraphDisputeManager",
      "outputs": [
        {
          "internalType": "address",
          "name": "",
          "type": "address"
        }
      ],
      "stateMutability": "view",
      "type": "function"
    },
    {
      "inputs": [],
      "name": "theGraphStaking",
      "outputs": [
        {
          "internalType": "address",
          "name": "",
          "type": "address"
        }
      ],
      "stateMutability": "view",
      "type": "function"
    },
    {
      "inputs": [
        {
          "internalType": "bytes32",
          "name": "data",
          "type": "bytes32"
        }
      ],
      "name": "toHexBytes",
      "outputs": [
        {
          "internalType": "bytes",
          "name": "",
          "type": "bytes"
        }
      ],
      "stateMutability": "pure",
      "type": "function"
    }
  ],
  "bytecode": {
    "object": "0x60806040526000196000553480156200001757600080fd5b5060405162003284380380620032848339810160408190526200003a9162000089565b600180546001600160a01b039384166001600160a01b03199182161790915560028054929093169116179055620000c1565b80516001600160a01b03811681146200008457600080fd5b919050565b600080604083850312156200009d57600080fd5b620000a8836200006c565b9150620000b8602084016200006c565b90509250929050565b6131b380620000d16000396000f3fe608060405234801561001057600080fd5b50600436106101585760003560e01c8063ae1927e2116100c3578063dede3d9d1161007c578063dede3d9d146103a1578063e833efdf146103b4578063ec0f03e4146103c7578063ec1af163146103da578063f3808b76146103ed578063fbe85f8a1461040d57600080fd5b8063ae1927e21461030c578063b07988121461031f578063b8c3244414610332578063bb663fb014610358578063c27b03291461036b578063c9cc33761461037e57600080fd5b8063728e69f511610115578063728e69f51461022c5780637923a027146102985780637cbf6a7f146102ab5780638136f3ba146102be57806387b54a93146102d1578063ac15d4ea146102e457600080fd5b80631768107f1461015d5780633e5ae9b3146101865780633e86ef31146101b15780635a67bdd5146101c45780635e2a1d31146101d95780636513143a146101fe575b600080fd5b61017061016b366004612352565b610420565b60405161017d91906123c7565b60405180910390f35b600254610199906001600160a01b031681565b6040516001600160a01b03909116815260200161017d565b600154610199906001600160a01b031681565b6101d76101d2366004612505565b6104ba565b005b6101ec6101e73660046125f0565b6105f8565b60405160ff909116815260200161017d565b61021e61020c366004612352565b60036020526000908152604090205481565b60405190815260200161017d565b61027861023a36600461260b565b600560209081526000928352604080842082529183529181902081518083019092526002810154825260038101549282019290925260049091015482565b60408051835181526020938401519381019390935282015260600161017d565b6101d76102a636600461266e565b610699565b61021e6102b93660046126f0565b610be0565b61021e6102cc36600461260b565b610d12565b6101706102df366004612352565b610e84565b6102f76102f236600461272c565b610ed0565b6040805192835260208301919091520161017d565b6101d761031a366004612352565b611005565b61019961032d36600461272c565b6110e7565b610345610340366004612352565b61115b565b60405161017d97969594939291906127a8565b61021e61036636600461260b565b6112bb565b61021e610379366004612505565b6112ec565b61039161038c366004612352565b61131c565b604051901515815260200161017d565b6103916103af36600461280f565b6113ff565b6101d76103c23660046128c9565b6115c6565b6101706103d536600461260b565b6118aa565b61021e6103e8366004612942565b6118ce565b6104006103fb3660046126f0565b611940565b60405161017d9190612995565b61021e61041b3660046129dc565b611a8f565b6008602052600090815260409020805461043990612a27565b80601f016020809104026020016040519081016040528092919081815260200182805461046590612a27565b80156104b25780601f10610487576101008083540402835291602001916104b2565b820191906000526020600020905b81548152906001019060200180831161049557829003601f168201915b505050505081565b60006104c5826112ec565b60008181526004602052604090208351919250839181906104e69082612aac565b50602082015160018201906104fb9082612aac565b5060408201518160020160006101000a81548160ff0219169083600281111561052657610526612770565b02179055506060828101516003830155608083015160048301805460a086015161ffff16600160d01b026001600160e01b03199091166001600160d01b039093169290921791909117905560c0909201516005909101558201518251602084015160408501517f60cf89931984f89d7c48eabae51a00f67b34f3659d7cca498542c9938af70c129333938693919290919060028111156105c8576105c8612770565b88608001518960a001518a60c001516040516105ec99989796959493929190612b6b565b60405180910390a15050565b6000600360fc1b60f883901b6001600160f81b0319161080159061062e5750603960f81b60f883901b6001600160f81b03191611155b156106445761063e603083612bfa565b92915050565b606160f81b60f883901b6001600160f81b031916108015906106785750603360f91b60f883901b6001600160f81b03191611155b1561069457606161068a83600a612c1d565b61063e9190612bfa565b919050565b60008681526003602052604081205490036106b7576106b786611005565b6000868152600360205260408120549081900361070e5760405162461bcd60e51b815260206004820152601060248201526f109b1bd8dac81b9bdd081c1a5b9b995960821b60448201526064015b60405180910390fd5b600086815260046020819052604082200154600160d01b900461ffff1690036107795760405162461bcd60e51b815260206004820152601a60248201527f71756572792062726964676520646f65736e27742065786973740000000000006044820152606401610705565b60006107ba84848080601f01602080910402602001604051908101604052809392919081815260200183838082843760009201919091525061194092505050565b90506107c982888888856113ff565b6108155760405162461bcd60e51b815260206004820152601d60248201527f71756572792f726573706f6e736520213d206174746573746174696f6e0000006044820152606401610705565b60025460405163c9747f5160e01b81526000916001600160a01b03169063c9747f5190610846908590600401612995565b602060405180830381865afa158015610863573d6000803e3d6000fd5b505050506040513d601f19601f820116820180604052508101906108879190612c42565b600154604051631787e69f60e01b81526001600160a01b03808416600483015292935060009290911690631787e69f90602401602060405180830381865afa1580156108d7573d6000803e3d6000fd5b505050506040513d601f19601f820116820180604052508101906108fb9190612c6b565b9050600081116109595760405162461bcd60e51b8152602060048201526024808201527f696e646578657220646f65736e2774206861766520736c61736861626c65207360448201526374616b6560e01b6064820152608401610705565b60008981526005602090815260408083208651845282528083208683015184529182905282205490910361099d576004810154610997906001612c84565b60048201555b60018101546000906109af57436109d8565b816001016000815481106109c5576109c5612c9c565b9060005260206000209060030201600201545b9050816001016040518060600160405280876020015181526020018a8a8080601f01602080910402602001604051908101604052809392919081815260200183838082843760009201829052509385525050506020918201859052835460018181018655948252908290208351600390920201908155908201519192909190820190610a649082612aac565b506040918201516002918201556020808801805160009081528683528481206001600160a01b038a16825290930182528383208790555182528490522054610aad908490612c84565b60208087015160009081529084905260409020556002820154610ad1908490612c84565b600283015560005b6001830154811015610b5a576000836001018281548110610afc57610afc612c9c565b906000526020600020906003020160000154905080876020015114610b4757610b448d88600001518960200151848660018a60010180549050610b3f9190612cb2565b611add565b50505b5080610b5281612cc9565b915050610ad9565b5060008b815260046020819052604082200154610b80906001600160d01b031683612c84565b90507f2c9c7a16979d8d2a1bae47b643a30d75f032ab5828401eeda25f8100a3811a1b338d88604001518e8e8e8e888e60000151604051610bc999989796959493929190612d0b565b60405180910390a150505050505050505050505050565b80516000908290604014610c365760405162461bcd60e51b815260206004820152601f60248201527f6c656e677468206f662068657820737472696e67206d757374206265203634006044820152606401610705565b60408051602080825281830190925260009160208201818036833701905050905060005b60028351610c689190612d65565b811015610d0657610ca683610c7e836002612d87565b610c89906001612c84565b81518110610c9957610c99612c9c565b016020015160f81c6105f8565b610cb584610c89846002612d87565b610cc0906010612da6565b610cca9190612c1d565b60f81b828281518110610cdf57610cdf612c9c565b60200101906001600160f81b031916908160001a905350610cff81612cc9565b9050610c5a565b50602001519392505050565b6000818152600460205260408120805482908290610d2f90612a27565b80601f0160208091040260200160405190810160405280929190818152602001828054610d5b90612a27565b8015610da85780601f10610d7d57610100808354040283529160200191610da8565b820191906000526020600020905b815481529060010190602001808311610d8b57829003601f168201915b505050505090506000610dba86610e84565b90506000836001018054610dcd90612a27565b80601f0160208091040260200160405190810160405280929190818152602001828054610df990612a27565b8015610e465780601f10610e1b57610100808354040283529160200191610e46565b820191906000526020600020905b815481529060010190602001808311610e2957829003601f168201915b50505050509050828282604051602001610e6293929190612dcf565b6040516020818303038152906040528051906020012094505050505092915050565b6060610e8f82611f19565b610e9c608084901b611f19565b60405161060f60f31b6020820152602281019290925260428201526062016040516020818303038152906040529050919050565b6000806000848481518110610ee757610ee7612c9c565b01602001516001600160f81b03191690506000607d60f81b821480610f195750600b60fa1b6001600160f81b03198316145b80610f315750601160f91b6001600160f81b03198316145b90508015610f4757600080935093505050610ffe565b6000603060f884901c10801590610f635750603960f884901c11155b905080610fa15760405162461bcd60e51b815260206004820152600c60248201526b34b73b30b634b21031b430b960a11b6044820152606401610705565b600080610fb3896102f28a6001612c84565b9092509050610fc381600a612eee565b610fd2603060f888901c612bfa565b60ff16610fdf9190612d87565b610fe99083612c84565b610ff4826001612c84565b9650965050505050505b9250929050565b61101161010043612cb2565b81116110775760405162461bcd60e51b815260206004820152602f60248201527f50696e6e656420626c6f636b206d7573742062652077697468696e207468652060448201526e6c6173742032353620626c6f636b7360881b6064820152608401610705565b600081815260036020526040902054156110d35760405162461bcd60e51b815260206004820152601d60248201527f70696e426c6f636b486173683a20616c72656164792070696e6e6564210000006044820152606401610705565b600081815260036020526040902090409055565b60008281805b601481101561114f57611101816013612cb2565b61110c906008612d87565b836111178784612c84565b8151811061112757611127612c9c565b01602001516001600160f81b031916901c91909117908061114781612cc9565b9150506110ed565b5060601c949350505050565b60046020526000908152604090208054819061117690612a27565b80601f01602080910402602001604051908101604052809291908181526020018280546111a290612a27565b80156111ef5780601f106111c4576101008083540402835291602001916111ef565b820191906000526020600020905b8154815290600101906020018083116111d257829003601f168201915b50505050509080600101805461120490612a27565b80601f016020809104026020016040519081016040528092919081815260200182805461123090612a27565b801561127d5780601f106112525761010080835404028352916020019161127d565b820191906000526020600020905b81548152906001019060200180831161126057829003601f168201915b50505050600283015460038401546004850154600590950154939460ff909216939092506001600160d01b03821691600160d01b900461ffff169087565b600760205281600052604060002081815481106112d757600080fd5b90600052602060002001600091509150505481565b6000816040516020016112ff9190612efa565b604051602081830303815290604052805190602001209050919050565b6000805b6000838152600760205260409020548110156113f657600254600084815260076020526040902080546001600160a01b039092169163be41f38491908490811061136c5761136c612c9c565b90600052602060002001546040518263ffffffff1660e01b815260040161139591815260200190565b602060405180830381865afa1580156113b2573d6000803e3d6000fd5b505050506040513d601f19601f820116820180604052508101906113d69190612f88565b156113e45750600192915050565b806113ee81612cc9565b915050611320565b50600092915050565b600061140b8686610d12565b8251146114805760405162461bcd60e51b815260206004820152603a60248201527f7175657279416e64526573706f6e73654d617463684174746573746174696f6e60448201527f3a205265717565737443494420446f65736e2774204d617463680000000000006064820152608401610705565b8383604051602001611493929190612faa565b604051602081830303815290604052805190602001208260200151146115215760405162461bcd60e51b815260206004820152603b60248201527f7175657279416e64526573706f6e73654d617463684174746573746174696f6e60448201527f3a20526573706f6e736543494420446f65736e2774204d6174636800000000006064820152608401610705565b604080830151600087815260046020529190912060030154146115ba5760405162461bcd60e51b8152602060048201526044602482018190527f7175657279416e64526573706f6e73654d617463684174746573746174696f6e908201527f3a2053756267726170684465706c6f796d656e74494420446f65736e2774204d6064820152630c2e8c6d60e31b608482015260a401610705565b50600195945050505050565b600061160783838080601f01602080910402602001604051908101604052809392919081815260200183838082843760009201919091525061194092505050565b80519091506116158161131c565b156116935760405162461bcd60e51b815260206004820152604260248201527f636572746966795375626772617068526573706f6e73653a205468657265206960448201527f732061207175657279206469737075746520666f7220746869732072657175656064820152611cdd60f21b608482015260a401610705565b6000878152600460208181526040808420808401546005918201549184528286208787529093529320918201546001600160d01b039091169291906001111561171e5760405162461bcd60e51b815260206004820181905260248201527f70726f706f73616c436f756e74206d757374206265206174206c6561737420316044820152606401610705565b60008160010160008154811061173657611736612c9c565b906000526020600020906003020160020154905043846001600160d01b0316826117609190612c84565b11156117a65760405162461bcd60e51b8152602060048201526015602482015274383937b837b9b0b61039ba34b63610333937bd32b760591b6044820152606401610705565b60008a8a6040516020016117bb929190612faa565b60408051601f19818403018152918152815160209283012060008181529286905291205490915084106118235760405162461bcd60e51b815260206004820152601060248201526f6e6f7420656e6f756768207374616b6560801b6044820152606401610705565b61182f8c878d8d6120cb565b60008c815260066020908152604080832089845282528083208f845260089092529091209061185e9082612fba565b507f279c26addc905ce60ab59cef8d8742fffb625fc2327c0e5df033183971e779688c878d8d604051611894949392919061308c565b60405180910390a1505050505050505050505050565b60066020908152600092835260408084209091529082529020805461043990612a27565b6000808461ffff8416856118e38660406130b6565b61ffff16926118f4939291906130dc565b8080601f0160208091040260200160405190810160405280939291908181526020018383808284376000920191909152509293506119379250839150610be09050565b95945050505050565b6040805160c081018252600080825260208201819052918101829052606081018290526080810182905260a0810191909152600161197f602080612c84565b6119899190612c84565b611994906060612c84565b8251146119ee5760405162461bcd60e51b815260206004820152602260248201527f4174746573746174696f6e206d75737420626520313631206279746573206c6f6044820152616e6760f01b6064820152608401610705565b600080600084806020019051810190611a079190613106565b9250925092506000611a1a866060612298565b90506000611a3387611a2e60206060612c84565b612298565b90506000611a57886020611a48816060612c84565b611a529190612c84565b6122f5565b6040805160c081018252978852602088019690965294860193909352606085019190915260808401525060ff1660a082015292915050565b600080611ad385858080601f016020809104026020016040519081016040528093929190818152602001838380828437600092019190915250879250610ed0915050565b5095945050505050565b6000868152600460208190526040822001548190600160d01b900461ffff168103611b4a5760405162461bcd60e51b815260206004820152601a60248201527f71756572792062726964676520646f65736e27742065786973740000000000006044820152606401610705565b60008881526005602090815260408083208a845282528083208984529182905290912054611bba5760405162461bcd60e51b815260206004820152601a60248201527f726573706f6e73654349443120646f65736e27742065786973740000000000006044820152606401610705565b600086815260208290526040902054611c155760405162461bcd60e51b815260206004820152601a60248201527f726573706f6e73654349443220646f65736e27742065786973740000000000006044820152606401610705565b858703611c775760405162461bcd60e51b815260206004820152602a60248201527f726573706f6e73654349443120616e6420726573706f6e73654349443220617260448201526965207468652073616d6560b01b6064820152608401610705565b6000816001018681548110611c8e57611c8e612c9c565b90600052602060002090600302016001018054611caa90612a27565b80601f0160208091040260200160405190810160405280929190818152602001828054611cd690612a27565b8015611d235780601f10611cf857610100808354040283529160200191611d23565b820191906000526020600020905b815481529060010190602001808311611d0657829003601f168201915b505050505090506000826001018681548110611d4157611d41612c9c565b90600052602060002090600302016001018054611d5d90612a27565b80601f0160208091040260200160405190810160405280929190818152602001828054611d8990612a27565b8015611dd65780601f10611dab57610100808354040283529160200191611dd6565b820191906000526020600020905b815481529060010190602001808311611db957829003601f168201915b505060025460405163644a111760e11b81529495506000948594506001600160a01b03909116925063c894222e9150611e159087908790600401613134565b60408051808303816000875af1158015611e33573d6000803e3d6000fd5b505050506040513d601f19601f82011682018060405250810190611e579190613159565b60008e815260076020908152604080832080546001818101835582865293852090810187905581549384018255935291018290555191935091508c908e907f732089c6bbaa14b543a6865bfcb8d7338e94c1208688ba786483c2b3950cfec190611ec49086815260200190565b60405180910390a38b8d7f732089c6bbaa14b543a6865bfcb8d7338e94c1208688ba786483c2b3950cfec183604051611eff91815260200190565b60405180910390a3909c909b509950505050505050505050565b7aff00000000000000ff00000000000000ff00000000000000ff00006bffffffff0000000000000000604083901c90811663ffffffff60c01b84161760201c63ffffffff60601b919091166001600160e01b031984161717601081901c9182167eff00000000000000ff00000000000000ff00000000000000ff000000000000821617600890811c7bff00000000000000ff00000000000000ff00000000000000ff000000939093167fff00000000000000ff00000000000000ff00000000000000ff000000000000009290921691909117919091179081901c7e0f000f000f000f000f000f000f000f000f000f000f000f000f000f000f000f167f0f000f000f000f000f000f000f000f000f000f000f000f000f000f000f000f00600492831c161790612067827f0606060606060606060606060606060606060606060606060606060606060606612c84565b901c7f0f0f0f0f0f0f0f0f0f0f0f0f0f0f0f0f0f0f0f0f0f0f0f0f0f0f0f0f0f0f0f0f1660276120979190612d87565b6120c1827f3030303030303030303030303030303030303030303030303030303030303030612c84565b61063e9190612c84565b600084815260046020526040902060029081015460ff16908160028111156120f5576120f5612770565b0361216d57600085815260046020819052604090912001546121259084908490600160d01b900461ffff16611a8f565b60405160200161213791815260200190565b60408051601f19818403018152918152600087815260066020908152828220888352905220906121679082612aac565b50612291565b600081600281111561218157612181612770565b03612209576121e183838080601f01602080910402602001604051908101604052809392919081815260200183838082843760009201829052508a81526004602081905260409091200154600160d01b900461ffff1692506110e7915050565b604051602001612137919060609190911b6bffffffffffffffffffffffff1916815260140190565b600181600281111561221d5761221d612770565b03612291576000858152600460208190526040909120015461224d9084908490600160d01b900461ffff166118ce565b60405160200161225f91815260200190565b60408051601f198184030181529181526000878152600660209081528282208883529052209061228f9082612aac565b505b5050505050565b60006122a5602083612c84565b835110156122ec5760405162461bcd60e51b815260206004820152601460248201527342797465733a206f7574206f6620626f756e647360601b6044820152606401610705565b50016020015190565b6000612302600183612c84565b835110156123495760405162461bcd60e51b815260206004820152601460248201527342797465733a206f7574206f6620626f756e647360601b6044820152606401610705565b50016001015190565b60006020828403121561236457600080fd5b5035919050565b60005b8381101561238657818101518382015260200161236e565b83811115612395576000848401525b50505050565b600081518084526123b381602086016020860161236b565b601f01601f19169290920160200192915050565b6020815260006123da602083018461239b565b9392505050565b634e487b7160e01b600052604160045260246000fd5b60405160e081016001600160401b0381118282101715612419576124196123e1565b60405290565b60405160c081016001600160401b0381118282101715612419576124196123e1565b600082601f83011261245257600080fd5b81356001600160401b038082111561246c5761246c6123e1565b604051601f8301601f19908116603f01168101908282118183101715612494576124946123e1565b816040528381528660208588010111156124ad57600080fd5b836020870160208301376000602085830101528094505050505092915050565b80356003811061069457600080fd5b80356001600160d01b038116811461069457600080fd5b803561ffff8116811461069457600080fd5b60006020828403121561251757600080fd5b81356001600160401b038082111561252e57600080fd5b9083019060e0828603121561254257600080fd5b61254a6123f7565b82358281111561255957600080fd5b61256587828601612441565b82525060208301358281111561257a57600080fd5b61258687828601612441565b602083015250612598604084016124cd565b6040820152606083013560608201526125b3608084016124dc565b60808201526125c460a084016124f3565b60a082015260c083013560c082015280935050505092915050565b803560ff8116811461069457600080fd5b60006020828403121561260257600080fd5b6123da826125df565b6000806040838503121561261e57600080fd5b50508035926020909101359150565b60008083601f84011261263f57600080fd5b5081356001600160401b0381111561265657600080fd5b602083019150836020828501011115610ffe57600080fd5b6000806000806000806080878903121561268757600080fd5b863595506020870135945060408701356001600160401b03808211156126ac57600080fd5b6126b88a838b0161262d565b909650945060608901359150808211156126d157600080fd5b506126de89828a0161262d565b979a9699509497509295939492505050565b60006020828403121561270257600080fd5b81356001600160401b0381111561271857600080fd5b61272484828501612441565b949350505050565b6000806040838503121561273f57600080fd5b82356001600160401b0381111561275557600080fd5b61276185828601612441565b95602094909401359450505050565b634e487b7160e01b600052602160045260246000fd5b600381106127a457634e487b7160e01b600052602160045260246000fd5b9052565b60e0815260006127bb60e083018a61239b565b82810360208401526127cd818a61239b565b9150506127dd6040830188612786565b60608201959095526001600160d01b0393909316608084015261ffff9190911660a083015260c0909101529392505050565b600080600080600085870361012081121561282957600080fd5b863595506020870135945060408701356001600160401b0381111561284d57600080fd5b61285989828a0161262d565b90955093505060c0605f198201121561287157600080fd5b5061287a61241f565b606087013581526080870135602082015260a0870135604082015260c0870135606082015260e087013560808201526128b661010088016125df565b60a0820152809150509295509295909350565b6000806000806000606086880312156128e157600080fd5b8535945060208601356001600160401b03808211156128ff57600080fd5b61290b89838a0161262d565b9096509450604088013591508082111561292457600080fd5b506129318882890161262d565b969995985093965092949392505050565b60008060006040848603121561295757600080fd5b83356001600160401b0381111561296d57600080fd5b6129798682870161262d565b909450925061298c9050602085016124f3565b90509250925092565b600060c082019050825182526020830151602083015260408301516040830152606083015160608301526080830151608083015260ff60a08401511660a083015292915050565b6000806000604084860312156129f157600080fd5b83356001600160401b03811115612a0757600080fd5b612a138682870161262d565b909790965060209590950135949350505050565b600181811c90821680612a3b57607f821691505b602082108103612a5b57634e487b7160e01b600052602260045260246000fd5b50919050565b601f821115612aa757600081815260208120601f850160051c81016020861015612a885750805b601f850160051c820191505b8181101561228f57828155600101612a94565b505050565b81516001600160401b03811115612ac557612ac56123e1565b612ad981612ad38454612a27565b84612a61565b602080601f831160018114612b0e5760008415612af65750858301515b600019600386901b1c1916600185901b17855561228f565b600085815260208120601f198616915b82811015612b3d57888601518255948401946001909101908401612b1e565b5085821015612b5b5787850151600019600388901b60f8161c191681555b5050505050600190811b01905550565b600061012060018060a01b038c1683528a6020840152896040840152806060840152612b998184018a61239b565b90508281036080840152612bad818961239b565b60a084019790975250506001600160d01b039390931660c084015261ffff9190911660e08301526101009091015295945050505050565b634e487b7160e01b600052601160045260246000fd5b600060ff821660ff841680821015612c1457612c14612be4565b90039392505050565b600060ff821660ff84168060ff03821115612c3a57612c3a612be4565b019392505050565b600060208284031215612c5457600080fd5b81516001600160a01b03811681146123da57600080fd5b600060208284031215612c7d57600080fd5b5051919050565b60008219821115612c9757612c97612be4565b500190565b634e487b7160e01b600052603260045260246000fd5b600082821015612cc457612cc4612be4565b500390565b600060018201612cdb57612cdb612be4565b5060010190565b81835281816020850137506000828201602090810191909152601f909101601f19169091010190565b60018060a01b038a16815288602082015287604082015260e060608201526000612d3960e08301888a612ce2565b8281036080840152612d4c818789612ce2565b60a0840195909552505060c00152979650505050505050565b600082612d8257634e487b7160e01b600052601260045260246000fd5b500490565b6000816000190483118215151615612da157612da1612be4565b500290565b600060ff821660ff84168160ff0481118215151615612dc757612dc7612be4565b029392505050565b60008451612de181846020890161236b565b845190830190612df581836020890161236b565b8451910190612e0881836020880161236b565b0195945050505050565b600181815b80851115612e4d578160001904821115612e3357612e33612be4565b80851615612e4057918102915b93841c9390800290612e17565b509250929050565b600082612e645750600161063e565b81612e715750600061063e565b8160018114612e875760028114612e9157612ead565b600191505061063e565b60ff841115612ea257612ea2612be4565b50506001821b61063e565b5060208310610133831016604e8410600b8410161715612ed0575081810a61063e565b612eda8383612e12565b8060001904821115612dc757612dc7612be4565b60006123da8383612e55565b602081526000825160e06020840152612f1761010084018261239b565b90506020840151601f19848303016040850152612f34828261239b565b9150506040840151612f496060850182612786565b506060840151608084015260018060d01b0360808501511660a084015261ffff60a08501511660c084015260c084015160e08401528091505092915050565b600060208284031215612f9a57600080fd5b815180151581146123da57600080fd5b8183823760009101908152919050565b818103612fc5575050565b612fcf8254612a27565b6001600160401b03811115612fe657612fe66123e1565b612ff481612ad38454612a27565b6000601f82116001811461302857600083156130105750848201545b600019600385901b1c1916600184901b178455612291565b600085815260209020601f19841690600086815260209020845b838110156130625782860154825560019586019590910190602001613042565b5085831015612b5b5793015460001960f8600387901b161c19169092555050600190811b01905550565b8481528360208201526060604082015260006130ac606083018486612ce2565b9695505050505050565b600061ffff8083168185168083038211156130d3576130d3612be4565b01949350505050565b600080858511156130ec57600080fd5b838611156130f957600080fd5b5050820193919092039150565b60008060006060848603121561311b57600080fd5b8351925060208401519150604084015190509250925092565b604081526000613147604083018561239b565b8281036020840152611937818561239b565b6000806040838503121561316c57600080fd5b50508051602090910151909290915056fea2646970667358221220d19c7be4384a8f3b233f9917b02b9ece5edd722f6134c122a19768640adb434064736f6c634300080f0033",
    "linkReferences": {}
  },
  "methodIdentifiers": {
    "_addressFromString(string,uint256)": "b0798812",
    "_bytes32FromHex(string)": "7cbf6a7f",
    "_bytes32FromString(string,uint16)": "ec1af163",
    "_fromHexChar(uint8)": "5e2a1d31",
    "_generateQueryRequestCID(bytes32,bytes32)": "8136f3ba",
    "_subgraphBridgeID((bytes,bytes,uint8,bytes32,uint208,uint16,uint256))": "c27b0329",
    "_uintFromByteString(bytes,uint256)": "ac15d4ea",
    "_uintFromString(string,uint256)": "fbe85f8a",
    "certifySubgraphResponse(bytes32,string,bytes)": "e833efdf",
    "createSubgraphBridge((bytes,bytes,uint8,bytes32,uint208,uint16,uint256))": "5a67bdd5",
    "isQueryDisputed(bytes32)": "c9cc3376",
    "latestSubgraphBridgeData(bytes32)": "1768107f",
    "parseAttestation(bytes)": "f3808b76",
    "pinBlockHash(uint256)": "ae1927e2",
    "pinnedBlocks(uint256)": "6513143a",
    "postSubgraphResponse(uint256,bytes32,string,bytes)": "7923a027",
    "queryAndResponseMatchAttestation(bytes32,bytes32,string,(bytes32,bytes32,bytes32,bytes32,bytes32,uint8))": "dede3d9d",
    "queryDisputes(bytes32,uint256)": "bb663fb0",
    "subgraphBridgeData(bytes32,bytes32)": "ec0f03e4",
    "subgraphBridgeProposals(bytes32,bytes32)": "728e69f5",
    "subgraphBridges(bytes32)": "b8c32444",
    "theGraphDisputeManager()": "3e5ae9b3",
    "theGraphStaking()": "3e86ef31",
    "toHexBytes(bytes32)": "87b54a93"
  },
  "id": 17
}